:020000040800F2
:10000000A80400209D010008052B0008072B00080C
:10001000092B00080B2B00080D2B00080000000026
:100020000000000000000000000000000F2B00088E
:10003000112B000800000000132B0008152B0008EE
:10004000B7010008B7010008B7010008B7010008B0
:10005000B7010008B7010008B7010008B7010008A0
:10006000B7010008B7010008B7010008B701000890
:10007000B7010008B7010008B7010008B701000880
:10008000B7010008B7010008B7010008B701000870
:10009000B7010008B7010008B7010008B701000860
:1000A000B7010008B7010008B7010008B701000850
:1000B000B7010008B7010008B7010008B701000840
:1000C000B7010008B7010008B7010008B701000830
:1000D000B7010008B7010008B7010008B701000820
:1000E0003D2B0008B7010008B7010008B701000860
:1000F000B7010008B7010008B7010008B701000800
:10010000B7010008B7010008B7010008B7010008EF
:10011000B7010008B7010008B7010008B7010008DF
:10012000B7010008B7010008B7010008B7010008CF
:10013000B7010008B7010008B7010008B7010008BF
:10014000B7010008B7010008B7010008B7010008AF
:10015000B7010008B7010008B7010008B70100089F
:10016000B7010008B7010008B7010008B70100088F
:10017000B7010008B7010008B7010008B70100087F
:10018000B7010008B7010008DFF80CD002F0F4FD59
:1001900000480047ED250008A804002006488047D5
:1001A00006480047FEE7FEE7FEE7FEE7FEE7FEE75C
:1001B000FEE7FEE7FEE7FEE70B2C000889010008DA
:1001C000B64910B588420AD184140121204601F0B5
:1001D000A5F82046BDE81040002101F09FB8B049C5
:1001E000884202D10121041404E0AE4988420AD1B8
:1001F0000121C413204601F087F82046BDE81040D5
:10020000002101F081B810BD30B502884C8802F49D
:1002100041530A88CD8822438C882C4322430C8981
:1002200022434C8922438C892243CC8922431A439E
:100230000280828B22F400628283098A018230BDAF
:10024000F0B502220023858B01244FF24006354091
:1002500085830284858B8E68022E3ED08A8802B107
:100260000224914A13681B0203D5136823F4000388
:1002700013608D4A7C3213681268C3F388138A4E68
:10028000C2F30272361F3668884F06F03F06B7FB8E
:10029000F6F65E43B6FBF2F2CB88B3F5007F2CD0C6
:1002A0006301B2FBF3F200BF02EB82028B685200E3
:1002B000B2FBF3F2521D92B20A23B2FBF3F202F048
:1002C0000103D21A4FF6FF74C2F34F0204EA03236C
:1002D000941EFE2C01D302220023CC881A4314431F
:1002E00004840A884B881A438B8889890B431A43F4
:1002F0002A4342F400618183F0BD120AD4E7002151
:10030000018041808180C180018141818181C181E1
:100310000721018270470021018041808180C180D6
:1003200002228260818170470029018802D041F059
:10033000400101E021F04001018070470029818BDC
:1003400002D041F4806101E021F480618183704733
:10035000028822F40062028002880A430280704709
:10036000B1F5804F018803D021F4804101807047AE
:1003700041F48041FAE7A1F57E420188FF3A02D0BC
:1003800041F4807101E021F48071018070470029FF
:10039000818802D041F0040101E021F00401818054
:1003A00070470029818802D041F0100101E021F05E
:1003B00010018180704730B5838B00224FF24004DA
:1003C0002340838302230384848B0B884FF480753E
:1003D000B3F5007F00D003B92A464B888D88898900
:1003E0002B4311430B43234343F40061818330BD0E
:1003F00080897047818170470029018802D041F4CB
:10040000005101E021F4005101807047018841F45E
:10041000805101807047012901D0008B7047808A8C
:100420007047008A7047002A828801D00A4300E0A2
:100430008A4382807047090901238B40002A828801
:1004400099B201D00A4300E08A4382807047024695
:10045000002012890A4200D001207047C94301815F
:10046000704710B501F00F040122034602FA04F4AC
:10047000002009098A4091B29A88A4B20A401989D9
:10048000214202D0002A00D0012010BD01F00F024D
:1004900001219140C94301817047000000300140B3
:1004A00000380040003C00400838024040787D01A0
:1004B000374900200860091D0860091D0860091DF2
:1004C00008603349334814310860704730B530490B
:1004D0008379026853B30B6893430B600A1D13685A
:1004E0000468A343136002790A4413680468234331
:1004F0001360274A083213680468A3431360131D6E
:100500001C680568AC431C604479102C05D021445C
:100510000A68006802430A6030BD1168046821431C
:100520001160196800680143196030BD0079084402
:1005300001689143016030BD0021016001710C220E
:10054000427181717047124910310A6802430A6092
:10055000704701460E4A0020143212680A4200D049
:10056000012070470A49143108607047084A014663
:1005700000201268064B0A4014331B680B4202D05D
:10058000002A00D0012070470149143108607047EB
:10059000003C0140FFFF7F002849084328490860CC
:1005A000704730B50F22C47801780123FCB1244C88
:1005B000246801F1E02104F4E064C4F5E064C4F3CC
:1005C0000724C4F10405E2404478AC408578154026
:1005D00025432A0181F80024007800F01F018B4098
:1005E0004009800000F1E020C0F8003130BD01F08A
:1005F0001F0083404809800000F1E020C0F88031EE
:1006000030BD104A114001430D48001F0160704782
:100610000B4A121D0029116801D0014300E08143FB
:10062000116070474FF0E0210428086903D020F0E2
:1006300004000861704740F00400FAE70000FA0582
:100640000CED00E080FFFF1FFE4910B5884206D187
:100650000121084600F062FE002101205BE0B0F1BC
:10066000804F09D0F84988420DD10121022000F0C5
:100670004BFE0021022070E00121084600F044FEFC
:100680000021012069E0F149884206D101210420BE
:1006900000F03AFE002104205FE0ED49884206D1D7
:1006A0000121082000F030FE0021082055E0E94932
:1006B000884206D10121102000F026FE00211020E2
:1006C0004BE0E549884206D10121202000F01CFEC4
:1006D0000021202041E0E149884206D10121022089
:1006E00000F01CFE0021022015E0DD49884202D105
:1006F00001210C040AE0DB49884202D101214C04AB
:1007000004E0D94988420AD101218C04204600F036
:1007100005FE00212046BDE8104000F0FFBDD34992
:10072000884206D10121402000F0EEFD002140204A
:1007300013E0CF49884206D10121802000F0E4FD7A
:100740000021802009E0CB4988420AD1841501218B
:10075000204600F0D9FD00212046BDE8104000F001
:10076000D3BD10BD30B50288B64BBC4C98420DD0FD
:10077000A0420BD0B0F1804F08D0B34DA84205D0B5
:10078000B24DA84202D0B24DA84203D122F070056A
:100790004A882A43AF4DA84206D0AF4DA84203D0A5
:1007A00022F440750A892A4302804A68C2620A8894
:1007B0000285984201D0A04201D1897A01860121A7
:1007C000818230BD4FF0FF31416000210180018105
:1007D000418081727047018582827047028822F0D1
:1007E00070020A430280704741627047C1627047DD
:1007F000406A7047008D70470029018802D041F09F
:10080000020101E021F00201018070470029018806
:1008100002D041F0040101E021F0040101807047A1
:100820000029018802D041F0800101E021F080011F
:1008300001807047028822F00802028002880A4381
:1008400002807047028822F44072028002880A43C4
:10085000028070470029018802D041F0010101E0C7
:1008600021F001010180704730B5028C22F00102B5
:100870000284028C8388048B22F0020224F0730528
:100880000C882C438D8915434A882A436D4DA84214
:1008900002D0724DA8420DD122F00805CA8923F476
:1008A00040732A4322F004058A882A430D8A1D4397
:1008B0004B8A2B438380048389684163028430BD63
:1008C00070B5028C22F010020284028C8488038BA3
:1008D0000D8823F4E6464FF6FF7303EA05253543FA
:1008E0008E8922F0200203EA061616434A8803EA9C
:1008F00002123243534EB04202D0584EB04215D18C
:1009000022F08006CA8924F4406403EA02123243CA
:1009100022F040068A8803EA021232430E8A03EA72
:10092000860626434C8A03EA840434438480058384
:1009300089688163028470BD70B5028C22F4807274
:100940000284028C8488838B0D8823F073031D43FB
:1009500022F400738E894FF6FF7202EA06261E43C8
:100960004B8802EA03233343364EB04202D03B4E5B
:10097000B04215D123F40066CB8924F4405402EA36
:100980000323334323F480668B8802EA0323334333
:100990000E8A02EA061626434C8A02EA04143443FD
:1009A000848085838968C163038470BD70B5028CBF
:1009B00022F480520284048C8288838B0D8823F475
:1009C000E6464FF6FF7303EA0525354324F4005647
:1009D0008C8903EA043434434E8803EA06362643FE
:1009E000184CA04202D01D4CA04205D122F48044F4
:1009F0000A8A03EA8212224382808583896801641D
:100A0000068470BD002101804180818081608181E8
:100A1000C18101824182704730B50124058C00F10B
:100A200018038C40A543058431B308292CD0091F35
:100A3000C1F34E001844016848F6FF731940016085
:100A400001681AE000000140000400400008004076
:100A5000000C004000100040001400400004014061
:100A6000004001400044014000480140001800409F
:100A7000001C00400020004006E04FF6FF7303EA30
:100A800002221143016030BD03EB510001684FF6B3
:100A90008F73194001600168F3E741637047816318
:100AA0007047C163704701647047028B22F0700287
:100AB0000A4302837047028B4FF6FF7322F4E04231
:100AC00003EA0121114301837047828B22F07002F7
:100AD0000A4382837047828B4FF6FF7322F4E04211
:100AE00003EA0121114381837047028B22F008023F
:100AF0000A4302837047028B4FF6FF7322F40062B1
:100B000003EA0121114301837047828B22F008021E
:100B10000A4382837047828B4FF6FF7322F4006290
:100B200003EA0121114381837047028B22F0040202
:100B30000A4302837047028B4FF6FF7322F48062F0
:100B400003EA0121114301837047828B22F00402E2
:100B50000A4382837047828B4FF6FF7322F48062D0
:100B600003EA0121114381837047028B22F0800246
:100B70000A4302837047028B4FF6FF73C2F30E02E3
:100B800003EA0121114301837047828B22F0800226
:100B90000A4382837047828B4FF6FF73C2F30E02C3
:100BA00003EA0121114381837047028C22F0020283
:100BB0000A4302847047028C22F008020A4302842E
:100BC0007047028C4FF6FF7322F0200203EA0111F6
:100BD000114301847047028C4FF6FF7322F08002AC
:100BE00003EA0111114301847047028C4FF6FF7331
:100BF00022F4007203EA0121114301847047028C40
:100C00004FF6FF7322F4006203EA012111430184CD
:100C10007047028C4FF6FF7322F4005203EA013151
:100C200011430184704710B50123048C8B409C4311
:100C30000484038C8A401343038410BD10B504233D
:100C4000048C8B409C430484038C8A4013430384AC
:100C500010BD828B22F440628283828B4FF6FF7339
:100C600003EA01210A4382837047828B22F00C023F
:100C70008283828B0A4382837047028B22F4406214
:100C80000283028B4FF6FF7303EA01210A430283BA
:100C90007047F0B5048C24F010040484078B068C94
:100CA0004FF6FF7404EA011527F4734704EA033191
:100CB000394304EA02220A4326F0A001294341F005
:100CC000100102830184F0BD028B22F00C0202832A
:100CD000028B0A43028370472DE9F0410D460E88CE
:100CE0004988AA882B8904460EB3042E26D0082EE4
:100CF000268C4FF6FF7028D026F480562684A78BCA
:100D0000268C00EA022200EA013127F473473A43B5
:100D100000EA0330104326F420420A4342F4805193
:100D2000A0832184E9882046BDE8F04191E700F0E6
:100D300062F9E9882046BDE8F041C5E7FFF7A9FF61
:100D4000E9882046BDE8F04197E726F480762684BE
:100D5000A78B268C00EA012100EA0310104327F03C
:100D6000F307384326F420620A4342F48071A083DB
:100D70002184E9882046BDE8F04176E70021018022
:100D8000418001228280C180018170472DE9F041BC
:100D90000C46002649880746012501B90226A2888B
:100DA000012A00D10225208823890028384610D046
:100DB000FFF76FFFE1883846FFF75FFF23892A4678
:100DC0003146384600F017F9E1883846BDE8F04171
:100DD0007AE700F010F9E1883846FFF775FF2389BC
:100DE0002A4631463846FFF754FFE1883846BDE8C9
:100DF000F04142E7406B7047806B7047C06B7047B3
:100E0000006C704710B50A884B88CC881A438B88D1
:100E100023431A430B891A434B8989891A430A438E
:100E2000A0F8442010BD0021018041808180C18054
:100E30000181418181817047002930F8441F02D02F
:100E400041F4004101E0C1F30E0101807047002927
:100E5000818802D041F0040101E021F00401818089
:100E600070470029818802D041F0010101E021F0A2
:100E7000010181807047002A828901D00A4300E085
:100E80008A43828170478182704702460020128A1D
:100E90000A4200D001207047C943018270470246D0
:100EA0000020138A92890B4202EA010202D0002A32
:100EB00000D001207047C943018270471143A0F858
:100EC00048107047002A828901D00A4300E08A4313
:100ED000828170470029818802D041F0080101E039
:100EE00021F0080181807047018921F0070101810B
:100EF0007047028922F070020A430281704700B5F0
:100F00000346FFF7F6FF188940F00700188100BD7F
:100F100070B516460D46602904464FF00102314671
:100F20000AD000F068F829462046FFF7E2FF208942
:100F300040F00700208170BDFFF7ABFEF3E730B54E
:100F400004894FF6FF7505EA03231343E4B20B430C
:100F50002343038130BD10B50446FFF7F0FF20891D
:100F600040F07700208110BD10B50446FFF7E7FF81
:100F7000208940F48040208110BD828822F07002D8
:100F8000828082880A4382807047028922F00702A9
:100F9000028102890A4302817047028922F080029D
:100FA000028102890A430281704770B50589048B6A
:100FB000068C25F007050D434FF6FC410C4040F22E
:100FC00001110C434FF6FF7101EA031126F02206CE
:100FD0001143314305810483018470BD0029818858
:100FE00002D041F0800101E021F080018180704752
:100FF000A0F85010704770B5048C24F001040484EC
:10100000058B048C4FF6FF7606EA0313134325F095
:10101000F3052B4324F00A020A4342F00101038343
:10102000018470BDEA48016841F001010160E84AAD
:101030000021083211600268E64B1A400260031D6D
:10104000E54A1A60026822F480220260E0480C300F
:1010500001607047DE490022891C0A7008707047E1
:1010600002460020510901290CD002290CD0D84990
:101070007431096802F01F02012393400B4200D033
:1010800001207047D249F4E7D1497031F1E718B532
:1010900000204FF4A04400903120FFF7E1FF0099B9
:1010A000491C0091A14201D00028F5D03120FFF762
:1010B000D7FF002800D0012018BDC5490A6822F0DA
:1010C000F80242EAC00008607047C44908607047EF
:1010D000BF49002270310A700A70012802D004282A
:1010E00001D1052008707047BD490860704741EA8A
:1010F00082115A0810B5BB4B029C03EB024211430C
:10110000014341EA0460B249091D086010BDB349BA
:1011100008667047800140EA0170AD49843108607B
:101120007047AE4988667047AC49C8647047A84AA2
:1011300008321368084323F0EC63184310607047CB
:10114000A34A08321368084323F078431843106019
:1011500070479F4A0832116821F003010143116072
:1011600070479B480830006800F00C007047984AB0
:101170000832116821F0F001014311607047944A70
:101180000832116821F4E051014311607047904921
:1011900008310A6822F4604242EAC00008607047E1
:1011A00070B58B4A083211688F4C11F00C0104D0D5
:1011B0008E4E042903D0082903D004601BE006608A
:1011C00019E08349091D0B68C3F380550B6803F0D0
:1011D0003F0315B1B6FBF3F301E0B4FBF3F30C6886
:1011E0000968C4F388146343C1F30141491C4900F1
:1011F000B3FBF1F1016011680F2303EA11117C4B7D
:101200005C5C0168E14041601468072505EA9424AC
:101210001C5D21FA04F48460126805EA52329A5C7B
:10122000D140C16070BDC0F30121032908D1684AD3
:101230000832116821F4F8136E4901401943116016
:10124000634970310A68C0F30B0002430A607047BB
:101250006349443908607047614940390860704704
:101260005E49C1F85C017047594A30320029116863
:1012700001D0014300E0814311607047544A343289
:101280000029116801D0014300E0814311607047DB
:101290004F4A38320029116801D0014300E08143F0
:1012A000116070474A4A40320029116801D0014359
:1012B00000E0814311607047454A443200291168BB
:1012C00001D0014300E0814311607047404A103271
:1012D0000029116801D0014300E08143116070478B
:1012E0003B4A14320029116801D0014300E08143D8
:1012F00011607047364A18320029116801D0014345
:1013000000E0814311607047314A203200291168A2
:1013100001D0014300E08143116070472C4A243220
:101320000029116801D0014300E08143116070473A
:10133000274A50320029116801D0014300E081435F
:1013400011607047224A54320029116801D00143CC
:1013500000E08143116070471D4A5832002911682E
:1013600001D0014300E0814311607047184A6032A8
:101370000029116801D0014300E0814311607047EA
:10138000134A64320029116801D0014300E081430F
:10139000116070470E4A0D320029117801D00143C7
:1013A00000E081431170704709487430016841F0D2
:1013B0008071016070470146054A00200C321268B6
:1013C0000A4200D00120704701490E310870704771
:1013D00000380240FFFFF6FE1030002400004742B4
:1013E000800E47420000FFFF0024F40040787D019A
:1013F00000000020FFFCFF0F8100A1F1C04148B1B7
:1014000043F2D200C1F800006FF070404860C1F8AC
:10141000040170474FF0204243F2DB001060F3E715
:1014200010B5D0E901121143D0E903231A43114347
:101430004269114382691143C2691143026A11432F
:10144000426A1143826A1143C26A1143026B11431B
:1014500002689200A2F1C04211608168082907D198
:1014600001688900A1F1C0410A6842F040020A60A7
:10147000416BD1E9002342EA03128B688C891B027D
:1014800043EA04431A430B8A42EA03520B7D8969FB
:1014900042EA03620A4301688900A1F1C0414A603F
:1014A000C16AB1F5804F08D000686FF070418000CC
:1014B000A0F1C040C0F8041110BD816BD1E9002338
:1014C00042EA03128B680C8A1B0243EA04531A4354
:1014D0000B7D896942EA036200680A438000A0F13B
:1014E000C040C0F8042110BD10B500210222C0E99F
:1014F00000128160C160016141618161D202C161FC
:10150000C0E908125200C0E90A210163436B0F22AF
:101510001A60436B5A60446BFF23A360446BE26024
:10152000446B2261446B6261446BA161846B2260F5
:10153000846B6260846BA360836BDA60836B1A6177
:10154000836B5A61806B816110BD8000A0F1C04047
:101550000029016802D041F0010101E0C44A1140B4
:101560000160704710B5182440234FF020414FF020
:10157000FC32102805D041F8804F4B608A60CA6069
:1015800010BD0C664B668A66CA6610BD30B5D0E9E0
:1015900001121143D0E903231A431143426941EA7E
:1015A0004221826941EA4231C26941F00804D2E92C
:1015B000001341EA03211389127B1B0443EA0262F0
:1015C000036A1143D3E9002542EA05221D891B7BEA
:1015D0002D0445EA03631A4303684FF02040102BA3
:1015E00004D040F8804F8160C26030BD04668166DF
:1015F000C26630BD10210160002141608160C16080
:10160000016141618161C269FC211160C26951605F
:10161000C2699160C269D160026A1160026A516058
:10162000026A9160006AC16070474FF0204251B178
:10163000102804D052F8800F40F004000AE0106E29
:1016400040F004000AE08A49C91E102804D052F86C
:10165000800F084010607047106E08401066704799
:101660004FF0204251B1102804D052F8800F40F0C2
:1016700040000AE0106E40F040000AE07C493F392B
:10168000102804D052F8800F084010607047106E88
:101690000840106670474FF02041102802D0D1F862
:1016A00094007047486F70474FF02040182140F871
:1016B000A01F002141604FF0FC318160C1600161D9
:1016C000704710B5D0E9001241EA42228168102328
:1016D00043EA41310A434FF0204141F8A02FC2684C
:1016E000D2E9003443EA04231489127B240444EA37
:1016F000026213438B600269D2E9003443EA042397
:101700001489127B240444EA02621343CB604069CB
:10171000D0E9002342EA03220389007B1B0443EA49
:10172000006002430A6110BD0021016041608160D8
:10173000C268FC211160C2685160C2689160C268D1
:10174000D1600269116002695160026991600269A9
:10175000D16042691160426951604269916040699B
:10176000C16070474FF02041002851F8A00F02D00F
:1017700040F0040002E03E4AD21E1040086070476C
:1017800010B54FF480744FF0204372B1102804D08C
:10179000A04205D153F8840F04E0586E08430DE0D1
:1017A00053F8A40F0843186010BD102804D0A042BD
:1017B00006D153F8840F05E0586E8843586610BD73
:1017C00053F8A40F8843EEE7034600204FF0204271
:1017D000102B08D0B3F5807F07D0D2F8A4200A429E
:1017E00000D001207047526EF9E7D2F88420F6E766
:1017F0004FF02042102807D0B0F5807F08D052F873
:10180000A40F884310607047506E8843506670473D
:1018100052F8840FF5E7034600204FF02042102BCA
:101820000CD0B3F5807F0BD0D2F8A4200A4202EA94
:10183000D10102D0002900D001207047526EF5E797
:10184000D2F88420F2E74FF02042102808D0B0F5FB
:10185000807F0AD052F8A40F20EAD10010607047B0
:10186000506E20EAD1005066704752F8840FF3E7BB
:10187000FEFF0F007C4910B5884206D101210846C1
:10188000FFF724FD002101204FE07849884206D16E
:1018900001210220FFF71AFD0021022045E07449D2
:1018A000884206D101210420FFF710FD0021042009
:1018B0003BE07049884206D101210820FFF706FD70
:1018C0000021082031E06C49884206D10121102016
:1018D000FFF7FCFC0021102027E06849884206D170
:1018E00001212020FFF7F2FC002120201DE06449A7
:1018F000884206D101214020FFF7E8FC002140206A
:1019000013E06049884206D101218020FFF7DEFC08
:101910000021802009E05C4988420AD18415012118
:101920002046FFF7D3FC00212046BDE81040FFF71A
:10193000CDBC10BDF0B50023012403270D6804FAC7
:1019400003F21540954242D1D0F800C05E0007FA7C
:1019500006F52CEA050CC0F800C091F804C0D0F8D8
:1019600000E00CFA06FC4CEA0E0CC0F800C091F83E
:1019700004C0BCF1010F02D0BCF1020F1FD1D0F89E
:1019800008C02CEA050CC0F808C091F805C0D0F8D2
:1019900008E00CFA06FC4CEA0E0CC0F808C0D0F8BF
:1019A00004C02CEA020CC0F804C0426891F806C0DA
:1019B0000CFA03FC1FFA8CFC42EA0C024260C2687B
:1019C000AA43C260CA79C568B2402A43C2605B1CA0
:1019D000102BB3D3F0BD4FF6FF71016000210171F0
:1019E00041718171C171704708B541F48032009234
:1019F000C261C1610099C161C169C069009008BD3F
:101A00000246002012690A4200D001207047006996
:101A100080B270470246002052690A4200D001207D
:101A20007047406980B270470183704741837047B7
:101A30000AB1018370474183704741617047426931
:101A40004A40426170474B07DB0E9A40C90810B507
:101A500000EB8100016A0F249C40A1430162016AEE
:101A60001143016210BD000000000240000402406A
:101A700000080240000C0240001002400014024026
:101A800000180240001C02400020024010B5012155
:101A90008C032046FFF742FC2046BDE810400021A1
:101AA000FFF73CBC13490860704710B58A0721F066
:101AB00003041149130F21440F22D1F808489A401A
:101AC0009443C1F80848D1F8082898400243C1F867
:101AD000082810BD0949C1F8DC00704708490860B2
:101AE00070470449002020310968C90500D501204C
:101AF00070470000003801400030014000002742DC
:101B00000004274270B5C34C054602212046FEF76B
:101B10009EFC0028F9D029462046FEF76BFC0121E7
:101B20002046FEF794FC0028F9D02046FEF760FC22
:101B3000C0B270BD002100E0491C8142FCD3704757
:101B400070B5B54E4FF4006529463046FFF76EFF7D
:101B50003220FFF7EFFFD020FFF7D4FF3220FFF74E
:101B6000E9FF0020FFF7CEFF4FF6FF7101EA0024E6
:101B70000020FFF7C7FF204484B229463046FFF714
:101B800053FF200970BD70B5A34E4FF40065294680
:101B90003046FFF74BFF3220FFF7CCFF9020FFF7D6
:101BA000B1FF3220FFF7C6FF0020FFF7ABFF4FF673
:101BB000FF7101EA00240020FFF7A4FF204484B253
:101BC00029463046FFF730FF200970BD10B5FFF7FA
:101BD000DAFF924CA080FFF7B3FFE080012010BD38
:101BE0002DE9FC474FF4804801214046FFF764FB94
:101BF00001214046FFF756FB01210220FFF734FB8D
:101C0000DFF8149205220D214846FFF71CFF05223C
:101C10000E214846FFF717FF05220F214846FFF720
:101C200012FF02268DF804608DF805600024300351
:101C30008DF8064000908DF8076069464846FFF72A
:101C400079FEB003009069464846FFF773FE694687
:101C50004846CDF80080FFF76DFE01258DF8045051
:101C60008DF8064003208DF80500B70200978DF827
:101C7000075069464846FFF75DFE39464846FFF77C
:101C8000D3FE66484FF4827114380480418084800A
:101C9000C68005816902418130218181C48107218B
:101CA00001825C4E01463046FEF7AEFA0121304615
:101CB000FEF73AFB01214046FFF7FEFA8DF804409B
:101CC0002E038DF80740694648460096FFF732FE1E
:101CD0000C210120FFF7E9FE51480C210660047138
:101CE00041718571FEF7F2FB4D482821801F01707C
:101CF00045708570C570FEF754FCBDE8FC87F0B5F3
:101D00008BB000254FF480514348FFF779FE10B1A6
:101D100000200BB0F0BDFFF759FF404E4FEA0D0415
:101D2000FFF754FF40B1B08824F8150004EB4501DB
:101D3000F0886D1C8882EDB20A2DF1D36D1E002251
:101D400010460CE004EB400334F8107059888F42C1
:101D500003D95F8024F810100122401CC0B2A842B1
:101D6000F0DB002AEBD1002318460AE004EB400127
:101D70008F8ACA8A974202D9CF828A820123401C65
:101D8000C0B2A842F2DB002BEDD1BDF81A00BDF8BD
:101D90001C100844BDF81E1001440320B1FBF0F1F3
:101DA000A1F2FF714942B180BDF80610BDF80820CC
:101DB0001144BDF80A201144B1FBF0F0A0F2FF700D
:101DC0004042F080164901200C390870A1E710B597
:101DD000FFF795FF1148062381883239CA1701EBB6
:101DE0005271C1F3CF020280C188323991FBF3F105
:101DF00089B24180F02A01D9F02202804FF4A0720A
:101E0000914200D94280064902880C394A804088B4
:101E1000888010BD0038004000040240740000209B
:101E20001C000020FB4908807047FA492C20891EBD
:101E300008807047F74908807047F649891E088076
:101E40007047F44B2A2210B59B1E1A80040A9A1C74
:101E50001480C0B210802B201880080A1080C8B2ED
:101E6000108010BD18B50446002001460090FFF711
:101E7000E8FF4FF496300090E6492C20891E088038
:101E8000881C00E0048000994A1E0092FAD218BD16
:101E900010B51446FFF7D5FFDE492C20891E0880B7
:101EA000881C048010BD2DE9F0478846002181463A
:101EB000DDF820A0B3EB0800A2EB09040F460E46A4
:101EC00001D4024600E04242231E00DA63429A42F5
:101ED00003DD014620460C460121251E04DA6C4232
:101EE0004FF0FF3C6D1E02E04FF0010C651C14B179
:101EF000000490FBF4F461B91BE000BF08EB06009E
:101F000081B209EB274080B25246FFF7C1FF274458
:101F10006644AE42F2D1BDE8F08700BF08EB27402F
:101F200081B209EB060080B25246FFF7B1FF2744A9
:101F30006644AE42F2D1EEE72DE9F8419846079C9F
:101F400017460E4605460B460094FFF7ACFF3A468F
:101F50004346314610460094FFF7A5FF43462A4604
:101F6000194638460094FFF79EFF2A4633464146FD
:101F700010460094FFF797FFBDE8F8812DE9F8417E
:101F80001F46154688460446079E08E022463B4603
:101F9000414610460096FFF786FF641CA4B2AC428F
:101FA000F4D3E9E72DE9F04F844603209B460E4623
:101FB000A0EB4207002514464FF4A07A5BE000BF77
:101FC0000CEB0508B8F1F00F0FD23019504505D2CF
:101FD00081B21FFA88F05A46FFF75AFF301B81B2D0
:101FE0001FFA88F05A46FFF753FF3019D046404594
:101FF00006D281B2ACEB050080B25A46FFF748FF2B
:10200000301B81B2ACEB050080B25A46FFF740FFAF
:102010000CEB0409B9F1F00F0FD27019404505D24D
:1020200081B21FFA89F05A46FFF732FF701B81B266
:102030001FFA89F05A46FFF72BFF7019404506D268
:1020400081B2ACEB040080B25A46FFF721FF701B4F
:1020500081B2ACEB040080B25A46FFF719FF002FA3
:1020600003DA07EB8507BF1D04E0281B07EB800799
:10207000641E0A376D1CA542A2D9BDE8F08F2DE978
:10208000F84F814603201F468846A0EB42060025F4
:10209000144649E0ECB1A9EB050CA8EB040A08EBE7
:1020A000040B1FFA8AF31FFA8CF21FFA8BF11FFA46
:1020B0008CF00097FFF7F7FE09EB050C1FFA8AF387
:1020C0001FFA8CF21FFA8BF11FFA8CF00097FFF7C2
:1020D000EAFEEDB1A9EB040CA8EB050B08EB050A31
:1020E0001FFA8BF31FFA8CF21FFA8AF11FFA8CF099
:1020F0000097FFF7D8FE09EB040C1FFA8BF31FFAC9
:102100008CF21FFA8AF11FFA8CF00097FFF7CBFED2
:10211000002E03DA06EB8506B61D04E0281B06EB4D
:102120008006641E0A366D1CA542B3D9BDE8F88F3F
:102130002DE9F04399469446884607460026364DD9
:1021400024E000241BE00C21B0FBF1F1C900802247
:102150008A403CF8161022410A4201D10C280DD9C0
:102160000122A240114201D10C2807D8A8EB04009B
:10217000401E81B24A463846FFF78AFE641C286832
:102180008088A042DFD87F1CBFB2761C2868C08838
:10219000B042D6D8BDE8F08330B4203AD4B21E4A5B
:1021A00012681568D288624305EB420230BCBFE773
:1021B0002DE9F0411F4615460C468046164E09E0B3
:1021C0003B4621464046FFF7E7FF30688088201AEB
:1021D00084B26D1C2A78002A05D03168601C80B258
:1021E00089888842ECD2BDE8F0810B4908607047CD
:1021F0002DE9F04FDFF81C901F4616468A468346AD
:1022000000244FF02C08A9F10209DFF808C0099D4D
:1022100018E00000000002603C0000200AEB04000F
:1022200081B25846FFF70DFEA9F80080002005E0B6
:1022300035F8021BACF80010401C80B2B042F7D356
:10224000641CA4B2BC42E9D317E72DE9F04FDFF8D4
:1022500084931F4616468A46834600244FF02C0876
:1022600009F1020C099D13E00AEB040081B2584603
:10227000FFF7E7FDA9F80080002005E035F8021B14
:10228000ACF80010401C80B2B042F7D3641CA4B27A
:10229000BC42E9D3F1E601B5CF48009941604168FD
:1022A0000029FCD108BD70B5CC4D4FF40054214637
:1022B0002846FFF7BBFB1E20FFF7EDFF214628460F
:1022C000FFF7B2FB0A20FFF7E6FFC24A01201080A9
:1022D0000520FFF7E0FF28201080C0201080BD48B7
:1022E0002621801C0180C121118011210180C5217E
:1022F0001180352101803E210180C7211180BE213E
:10230000018036211180482101803A211180552118
:1023100001802A2111800021018001800180EF21AC
:1023200001802B2111800021018001800121018089
:102330003F210180342111803621118058210180F4
:10234000B721118007210180B62111800A21018067
:10235000822101802721018000210180112010802D
:102360006420FFF798FF292010806420FFF793FF77
:102370002C2010800520FFF78EFFBDE8704005205F
:1023800089E7944A1080901C0180704770B5934D86
:102390004FF4005421462846FFF748FB1E20FFF764
:1023A0007AFF21462846FFF73FFB0A20FFF773FF1D
:1023B00021210720FFF7E5FF01210020FFF7E1FFC2
:1023C00023210720FFF7DDFF00211020FFF7D9FFB1
:1023D0001E20FFF760FF33210720FFF7D2FF46F2F0
:1023E00018011120FFF7CDFF4FF4C0610220FFF765
:1023F000C8FFBDE8704042F63F310120C1E77CB51F
:102400000024009401211C200194FEF72DFF4FF4BD
:102410000050009001208DF8040002258DF8055031
:1024200069466E48FFF786FA8DF804504CF6B37093
:102430008DF805406A4E00908DF806408DF80740F3
:1024400069463046FFF776FA0C2200213046FFF746
:10245000FAFA0C2201213046FFF7F5FA0C2204218A
:102460003046FFF7F0FA0C2205213046FFF7EBFA71
:102470000C2207213046FFF7E6FA0C2208213046ED
:10248000FFF7E1FA0C2209213046FFF7DCFA0C22B3
:102490000A213046FFF7D7FA0C220B213046FFF70E
:1024A000D2FA0C220E213046FFF7CDFA0C220F2172
:1024B0003046FFF7C8FA8DF804508DF805408DF8C6
:1024C00006408DF807404FF68070464C00906946F4
:1024D0002046FFF72FFA0C2207212046FFF7B3FA18
:1024E0000C2208212046FFF7AEFA0C2209212046D3
:1024F000FFF7A9FA0C220A212046FFF7A4FA0C22C2
:102500000B212046FFF79FFA0C2211462046FFF7C9
:102510009AFA0C220D212046FFF795FA0C220E2183
:102520002046FFF790FA0C220F212046FFF78BFA86
:102530007CBD00B597B01C210FA800F008FC3C2121
:10254000684600F004FC01210846FEF7A1FE0020C9
:102550000A2111911021CDE9020113900490090282
:102560000F901590CDE90801009001900FA90690F9
:1025700007900A900B90CDE90C0105900E916846EA
:10258000FEF74EFF01210020FEF7DFFF17B000BD70
:102590001FB56846FEF704FE01984FF47A71B0FB50
:1025A000F1F0401EB0F1807F0AD24FF0E021486187
:1025B0000D4AF02082F8140D002088610720086180
:1025C0001FBD05484168002902D04168491E41608D
:1025D00070470000FEFF01603C0000200008024040
:1025E000000C0240001002400FE000E00EB5FFF7C3
:1025F000CFFFFFF704FFFFF79CFFFFF754FE00F04B
:1026000025FAFFF7EDFAE649502008600020FFF7B1
:1026100029FCE448FFF7E9FD4FF6FF73E2A240F220
:1026200027110E20FFF7C4FD4FF4FA70FFF733FEB9
:10263000E14C4FF6E07500BFFFF7C9FB64210023B2
:10264000DE4A0846FFF7B4FDDC4A00230A32642163
:102650008220FFF7ADFDA1880A22684600F03EFB0C
:1026600064211F236A460846FFF7A2FD6946D34846
:1026700000F078FBE1880A22684600F02FFB1F2358
:102680006A4664218220FFF793FDCC4869460A30F0
:1026900000F068FB618820882B460222FFF7EFFCE0
:1026A0001420FFF7F8FDC7E72DE9F05F00264FF093
:1026B0008C094FF0DC0A4FF0320B00BF00F02EFB0C
:1026C00090FBF9F209FB120085B200F027FB90FBAA
:1026D000FAF20AFB120084B200F020FB90FBFBF23E
:1026E0000BFB1200401C1FFA80F800F017FB4FF69E
:1026F000FF7101EAC00700F011FB0A2190FBF1F223
:1027000001FB120080B2052804F1320405F1320504
:10271000A1B2A8B23B46424602D3FFF743FC01E018
:10272000FFF7ADFC0A20FFF7B6FD761CB6F5FA7F81
:10273000C4D3BDE8F09F2DE9F84F00244FF0F00B13
:102740004FF6FF7A00F0EAFA5E4690FBF6F10BFBDB
:1027500011001FFA80F900F0E1FA4FF4A07590FB28
:10276000F5F105FB11001FFA80F800F0D7FA90FB95
:10277000F6F106FB110086B200F0D0FA90FBF5F1FD
:1027800005FB110087B200F0C9FA85B200F0C6FA65
:102790000A2190FBF1F201FB120080B205280AEA3F
:1027A000C50000903B4632464146484602D3FFF7FB
:1027B000C3FB01E0FFF7E2FB0A20FFF76CFD641C9E
:1027C000B4F5FA7FBED3BDE8F88F2DE9F84F0024A9
:1027D0004FF0F00A4FF4A0794FF6FF7B00F09EFA1D
:1027E000554690FBF5F10AFB11001FFA80F800F046
:1027F00095FA90FBF9F209FB120086B200F08EFA0E
:1028000090FBF5F105FB110087B200F087FA90FB11
:10281000F9F209FB120085B200F080FA80B20BEAEF
:10282000C00000902B463A4631464046FFF73BFB3E
:102830000A20FFF730FD641CB4F5FA7FCED3C2E75F
:10284000FEB500242046FFF70DFB5648FFF7CDFCF0
:102850004FF6FF7540F227162B4653A231460E2045
:10286000FFF7A6FC0A222146684600F037FA2B46FD
:102870006A4631462B20FFF79BFC2B4650A240F2C4
:102880001F114820FFF794FC4F48FFF7AEFC2B4682
:102890004EA240F21D116120FFF78AFC5048FFF75D
:1028A000A4FC40F203142B464EA22146DC20FFF785
:1028B0007FFC2B4650A22146E620FFF779FC6424DA
:1028C0003848FFF792FC0A222146684600F006FAD3
:1028D0002B466A4631462B20FFF76AFC6420FFF73F
:1028E000DAFC641E2404240CEDD14FF40051474857
:1028F000FFF7A5F80020FFF7B5FA2A48FFF775FCA7
:102900002B4643A2FF216B20FFF752FC4FF4FA64E1
:102910002046FFF7C0FC0020FFF7A4FAFFF755FFA1
:10292000A7103846FFF7B7FC0020FFF79BFA1D48B9
:10293000FFF75BFC2B463AA231466B20FFF738FCD1
:102940002046FFF7A8FC0020FFF78CFAFFF7F3FE04
:102950003846FFF7A0FC0020FFF784FA1148FFF784
:1029600044FC2B4633A240F20F116B20FFF720FCF2
:102970002046FFF790FC0020FFF774FAFFF794FE63
:102980003846FFF788FC0020FFF76CFA0548FFF790
:102990002CFC2B462BA2C7216B20FFF709FCFEBDA8
:1029A00034080040240000204469676974616C2089
:1029B0004465766963657300740000209000002010
:1029C00028632932303133002C00002053544D331A
:1029D0003246342D446973636F7665727900000066
:1029E00034000020436F6D70696C6564206279204B
:1029F0006A6F706C00000000535344313238392044
:102A00002B2058505432303436000000000C024065
:102A100052616E646F6D204C696E6573000000003A
:102A200052616E646F6D2052656374616E676C6590
:102A30007300000052616E646F6D20436972636CB5
:102A400065730000496D61676573000070B58AB0F9
:102A500001210420FEF726FC01210820FEF704FCDA
:102A60004FF48050059002208DF8180003208DF857
:102A7000190000241E4E8DF81A4001258DF81B50B8
:102A800005A93046FEF756FF02220C213046FEF71C
:102A9000DAFF184818491A4E0068B0FBF1F01749E0
:102AA000401E08806421ADF81C000891ADF8244058
:102AB000ADF81E4007A93046FDF754FE6020ADF882
:102AC0000000ADF802500294ADF80C406946304663
:102AD000FDF7CAFE08213046FEF707F8012130460F
:102AE000FDF79EFE01213046FDF7B4FE0AB070BD31
:102AF000000C02404800002080DE800244000020DC
:102B0000000800407047FEE7FEE7FEE7FEE770477B
:102B10007047704710B5FFF754FD11480178491E02
:102B200011F0FF01017008D1C8210170BDE810400B
:102B30004FF400510B48FEF782BF10BD10B54FF4A3
:102B400080542046FDF712FD002808D0610005489A
:102B5000FEF775FF2046BDE81040FDF715BD10BD1E
:102B600046000020000C02400CB5002051490190A5
:102B700000900A6842F480320A604FF4A0430A6869
:102B800002F400320092019A521C0192009A12B98A
:102B9000019A9A42F3D10A68920334D50120009039
:102BA00044484030026842F0805202604248026865
:102BB00042F4404202603F48083002680260026806
:102BC00042F400420260026842F4A0520260031F15
:102BD0003A4A1A600A6842F080720A600A689201F2
:102BE000FCD5374A40F205611160016821F003010C
:102BF0000160016841F0020101600168C1F38101D7
:102C00000229FAD10CBD00900CBD2A4810B501680C
:102C100041F001010160274A002108321160026879
:102C2000284B1A400260031D274A1A60026822F4EA
:102C3000802202601F480C300160FFF795FF234996
:102C40004FF00060086010BD70B51A4C0834206861
:102C50001F4A10F00C011F4804D01F4D042903D057
:102C6000082903D002601BE0056019E01149091D25
:102C70000B68C3F380560B6803F03F0316B1B5FB36
:102C8000F3F201E0B2FBF3F20B680968C3F38813B7
:102C90005A43C1F30141491C4900B2FBF1F1016003
:102CA00021680C4AC1F30311121D515C0268CA402D
:102CB000026070BD003802400070004019544007A7
:102CC000003C0240FFFFF6FE1030002408ED00E05B
:102CD0000024F4004800002040787D0170B50123F5
:102CE000002500E05343B1FBF3F49442FAD20FE025
:102CF000B1FBF3F4B1FBF3F603FB1611B3FBF2F3F4
:102D0000092C01D9373400E0303444556D1CEDB244
:102D1000002BEDD10021415570BD00000649074A46
:102D20000868504343F23902104408604008704775
:102D300001490860704700005C0000206D4EC641EC
:102D4000D2B201E000F8012B491EFBD270470022ED
:102D5000F6E710B513460A4604461946FFF7F0FF9A
:102D6000204610BD034611F8012B00F8012B002A64
:102D7000F9D1184670470000064C074D06E0E068A0
:102D800040F0010394E8070098471034AC42F6D3B2
:102D9000FDF7FEF98C4E0008AC4E000802E008C8B2
:102DA000121F08C1002AFAD170477047002001E0C5
:102DB00001C1121F002AFBD1704700000000000073
:102DC0000000000000000000000000000000000003
:102DD00000000000000000000000000000000000F3
:102DE00000000000000000000000000080018001E1
:102DF00080018001800180018001800180018001CB
:102E0000800180018001000000008001800100003D
:102E10000000000000000000000000000000CC00E6
:102E2000CC00CC00CC00CC00CC00000000000000A6
:102E30000000000000000000000000000000000092
:102E40000000000000000000000000000000000082
:102E5000000000000000600C600C600C30063006C2
:102E6000FE1FFE1F300638071803FE1FFE1F180343
:102E700018038C018C018C01000000008000E0032D
:102E8000F80F9C0E8C1C8C188C009800F801E00741
:102E9000800E801C8C188C189C18B80CF00FE00366
:102EA0008000800000000000000000000000000022
:102EB0000E181B0C110C11061106110311039B01B6
:102EC0008E01C038C06C60446044304430441844C3
:102ED000186C0C380000000000000000E001F00356
:102EE0003807180618063003F001F000F8009C318E
:102EF0000E33061E061C061C063FFC73F021000064
:102F000000000000000000000000000000000C00B5
:102F10000C000C000C000C000C0000000000000075
:102F200000000000000000000000000000000000A1
:102F3000000000000000000000000000000200038C
:102F40008001C000C0006000600030003000300030
:102F50003000300030003000300060006000C00001
:102F6000C00080010003000200000000200060009B
:102F7000C000800180010003000300060006000677
:102F8000000600060006000600060003000380019C
:102F90008001C00060002000000000000000000070
:102FA000000000000000C000C000D806F807E001E3
:102FB000300338070000000000000000000000009F
:102FC0000000000000000000000000000000000001
:102FD000000000000000800180018001800180016C
:102FE000FC3FFC3F800180018001800180010000E6
:102FF00000000000000000000000000000000000D1
:1030000000000000000000000000000000000000C0
:1030100000000000000000000000000080018001AE
:10302000000100018000000000000000000000001E
:103030000000000000000000000000000000000090
:103040000000E007E00700000000000000000000B2
:103050000000000000000000000000000000000070
:103060000000000000000000000000000000000060
:10307000000000000000000000000000C000C000D0
:10308000000000000000000000000000000C000C28
:103090000006000600060003000300038003800111
:1030A00080018001C000C000C0006000600000001E
:1030B000000000000000000000000000E003F00736
:1030C000380E180C0C180C180C180C180C180C18BE
:1030D0000C180C180C18180C380EF007E003000040
:1030E000000000000000000000000000000180015E
:1030F000C001F001980188018001800180018001F8
:103100008001800180018001800180018001000038
:10311000000000000000000000000000E003F80FC5
:10312000180C0C180C1800180018000C00060003EE
:103130008001C000600030001800FC1FFC1F000070
:10314000000000000000000000000000E001F8079F
:10315000180E0C0C0C0C000C0006C003C007000C71
:10316000001800180C180C18180CF807E0030000E1
:10317000000000000000000000000000000C000E35
:10318000000F000F800DC00C600C600C300C180C90
:103190000C0CFC3FFC3F000C000C000C000C000071
:1031A000000000000000000000000000F80FF80F11
:1031B000180018000C00EC03FC071C0E001C001883
:1031C000001800180C181C0C180EF807E00300007B
:1031D000000000000000000000000000C007F00F29
:1031E000381C181818000C00CC03EC0F3C0E1C1CEB
:1031F0000C180C180C18181C380EF007E00300000F
:10320000000000000000000000000000FC1FFC1F88
:10321000000C00060006000380038001C001C0000E
:10322000E0006000600070003000300030000000FE
:10323000000000000000000000000000E003F007B4
:10324000380E180C180C180C3806F007F007180C7C
:103250000C180C180C180C18380CF80FE0030000B0
:10326000000000000000000000000000E003F00784
:10327000380E1C0C0C180C180C181C1C381EF81BD3
:10328000E0190018000C000C1C0EF807F0010000FB
:10329000000000000000000000000000000000002E
:1032A000000000000000800180010000000000001C
:1032B000000000000000000000008001800100000C
:1032C00000000000000000000000000000000000FE
:1032D00000000000000080018001000000000000EC
:1032E00000000000000000000000800180010001DB
:1032F000000180000000000000000000000000004D
:10330000000000000000000000000010001C800F02
:10331000E003F8001800F800E003800F001C001024
:10332000000000000000000000000000000000009D
:1033300000000000000000000000F81F0000000076
:103340000000F81F00000000000000000000000066
:10335000000000000000000000000000000000006D
:103360000000000000000000000008003800F0012C
:10337000C007001F0018001FC007F0013800080038
:10338000000000000000000000000000E003F80F53
:10339000180C0C180C180018000C00060003800113
:1033A000C000C000C00000000000C000C00000005D
:1033B0000000000000000000000000000000E00726
:1033C00018180420C229224A114409440944094416
:1033D00009221113E20C024004201818E007000033
:1033E00000000000000000000000000080038003D7
:1033F000C006C006C006600C600C301830183018CB
:10340000F83FF83F1C700C600C6006C006C000005E
:10341000000000000000000000000000FC03FC0FA2
:103420000C0C0C180C180C180C0CFC07FC0F0C18CE
:103430000C300C300C300C300C18FC1FFC0700005A
:10344000000000000000000000000000C007F01FA6
:1034500038381C300C7006600600060006000600B6
:103460000600060006600C701C30F01FE00700002C
:10347000000000000000000000000000FE03FE0F3E
:10348000060E0618061806300630063006300630DE
:103490000630063006180618060EFE0FFE03000062
:1034A000000000000000000000000000FC3FFC3FA6
:1034B0000C000C000C000C000C00FC1FFC1F0C008E
:1034C0000C000C000C000C000C00FC3FFC3F00004A
:1034D000000000000000000000000000F83FF83F7E
:1034E00018001800180018001800F81FF81F18001E
:1034F0001800180018001800180018001800000024
:10350000000000000000000000000000E00FF83F95
:103510003C780E6006E007C00300030003FE03FED4
:1035200003C007C006C00EC03CF0F83FE00F00002B
:103530000000000000000000000000000C300C3013
:103540000C300C300C300C300C30FC3FFC3F0C309D
:103550000C300C300C300C300C300C300C300000C7
:103560000000000000000000000000008001800159
:103570008001800180018001800180018001800143
:1035800080018001800180018001800180010000B4
:10359000000000000000000000000000000600061F
:1035A00000060006000600060006000600060006EB
:1035B00000060006180618063807F003E0010000B0
:1035C00000000000000000000000000006300618A7
:1035D000060C060606038601C60066007600DE00BD
:1035E0008E0106030606060C06180630066000006B
:1035F000000000000000000000000000180018009B
:1036000018001800180018001800180018001800FA
:1036100018001800180018001800F81FF81F000004
:103620000000000000000000000000000EE01EF09E
:103630001EF01EF036D836D836D836D866CC66CCD2
:1036400066CCC6C6C6C6C6C6C6C686C386C3000086
:103650000000000000000000000000000C301C30E2
:103660003C303C306C306C30CC30CC308C310C3356
:103670000C330C360C360C3C0C3C0C380C30000077
:10368000000000000000000000000000E007F81F3C
:103690001C380E70066003C003C003C003C003C023
:1036A00003C003C006600E701C38F81FE00700005E
:1036B000000000000000000000000000FC0FFC1FE4
:1036C0000C380C300C300C300C300C18FC1FFC0784
:1036D0000C000C000C000C000C000C000C00000096
:1036E000000000000000000000000000E007F81FDC
:1036F0001C380E70066003E003C003C003C003C0A3
:1037000003C007E006630E3F1C3CF83FE0F700C033
:10371000000000000000000000000000FE0FFE1F7F
:1037200006380630063006300638FE1FFE07060350
:103730000606060C0618061806300630066000005D
:10374000000000000000000000000000E003F80F8F
:103750001C0C0C180C180C001C00F803E00F001EC9
:103760000038063006300E301C1CF80FE007000051
:10377000000000000000000000000000FE7FFE7F4F
:103780008001800180018001800180018001800131
:1037900080018001800180018001800180010000A2
:1037A0000000000000000000000000000C300C30A1
:1037B0000C300C300C300C300C300C300C300C3029
:1037C0000C300C300C300C301818F81FE0070000DB
:1037D0000000000000000000000000000360063050
:1037E000063006300C180C180C18180C180C380E73
:1037F00030063006700760036003C001C00100009E
:103800000000000000000000000000000360C36131
:10381000C361C361663366336633663366336633CA
:103820006C1B6C1B6C1B2C1A3C1E380E380E0000D7
:103830000000000000000000000000000FE00C701D
:1038400018303018700C600EC00780038003C0036E
:10385000E006700C301C18180C300E6007E00000F9
:1038600000000000000000000000000003C006602F
:103870000C301C383818300C6006E007C00380019B
:1038800080018001800180018001800180010000B1
:10389000000000000000000000000000FC7FFC7F32
:1038A000006000300018000C000600038001C0001A
:1038B0006000300018000C000600FE7FFE7F000054
:1038C000000000000000000000000000E003E00332
:1038D00060006000600060006000600060006000E8
:1038E00060006000600060006000600060006000D8
:1038F00060006000E003E0030000000030003000E2
:10390000600060006000C000C000C000C001800115
:103910008001800100030003000300060006000090
:10392000000000000000000000000000E003E003D1
:10393000000300030003000300030003000300036F
:10394000000300030003000300030003000300035F
:1039500000030003E003E003000000000000C001DA
:10396000C00160036003600330063006180C180CB9
:103970000000000000000000000000000000000047
:103980000000000000000000000000000000000037
:103990000000000000000000000000000000000027
:1039A000000000000000000000000000FFFFFFFF1B
:1039B0000000000000000000000000000C000C00EF
:1039C0000C000C000C000C000000000000000000C7
:1039D00000000000000000000000000000000000E7
:1039E00000000000000000000000000000000000D7
:1039F000000000000000F003F8071C0C0C0C000F86
:103A0000F00FF80C0C0C0C0C1C0FF80FF018000049
:103A10000000000000000000000000001800180076
:103A2000180018001800D803F80F380C18181818C8
:103A30001818181818181818380CF80FD8030000A0
:103A40000000000000000000000000000000000076
:103A5000000000000000C003F007300E180C180032
:103A6000180018001800180C300EF007C0030000F2
:103A70000000000000000000000000000018001816
:103A8000001800180018C01BF01F301C1818181858
:103A90001818181818181818301CF01FC01B000030
:103AA0000000000000000000000000000000000016
:103AB000000000000000C003F00F300C1818F81FC1
:103AC000F81F180018003818301CF00FC00700004D
:103AD000000000000000000000000000800FC00F88
:103AE000C000C000C000F007F007C000C000C00068
:103AF000C000C000C000C000C000C000C000000086
:103B000000000000000000000000000000000000B5
:103B1000000000000000E00DF80F180E0C0C0C0C5B
:103B20000C0C0C0C0C0C0C0C180EF80FE00D000C0F
:103B30000C0C1C06F807F00100000000180018002B
:103B4000180018001800D807F80F381C1818181893
:103B50001818181818181818181818181818000015
:103B6000000000000000000000000000C000C000D5
:103B7000000000000000C000C000C000C000C00085
:103B8000C000C000C000C000C000C000C0000000F5
:103B9000000000000000000000000000C000C000A5
:103BA000000000000000C000C000C000C000C00055
:103BB000C000C000C000C000C000C000C000C00005
:103BC000C000C000F8007800000000000C000C00ED
:103BD0000C000C000C000C0C0C060C038C01CC002F
:103BE0006C00FC009C018C030C030C060C0C000008
:103BF000000000000000000000000000C000C00045
:103C0000C000C000C000C000C000C000C000C000B4
:103C1000C000C000C000C000C000C000C000000064
:103C20000000000000000000000000000000000094
:103C30000000000000007C3CFF7EC7E383C183C11D
:103C400083C183C183C183C183C183C183C1000098
:103C50000000000000000000000000000000000064
:103C60000000000000009807F80F381C18181818FA
:103C700018181818181818181818181818180000F4
:103C80000000000000000000000000000000000034
:103C9000000000000000C003F00F300C18181818C6
:103CA0001818181818181818300CF00FC003000056
:103CB0000000000000000000000000000000000004
:103CC000000000000000D803F80F380C181818186E
:103CD0001818181818181818380CF80FD8031800E6
:103CE0001800180018001800000000000000000074
:103CF000000000000000C01BF01F301C181818182E
:103D00001818181818181818301CF01FC01B0018A5
:103D10000018001800180018000000000000000043
:103D2000000000000000B007F00370003000300019
:103D30003000300030003000300030003000000033
:103D40000000000000000000000000000000000073
:103D5000000000000000E003F003380E180C3800EB
:103D6000F003C007000C180C380EF007E003000049
:103D700000000000000000000000000000008000C3
:103D8000C000C000C000F007F007C000C000C000C5
:103D9000C000C000C000C000C000C0078007000015
:103DA0000000000000000000000000000000000013
:103DB0000000000000001818181818181818181813
:103DC0001818181818181818381CF01FE0190000D7
:103DD00000000000000000000000000000000000E3
:103DE0000000000000000C18180C180C180C30060D
:103DF00030063006600360036003C001C0010000AC
:103E000000000000000000000000000000000000B2
:103E1000000000000000C141C141C36163636363EE
:103E200063633636363636361C1C1C1C1C1C0000E0
:103E30000000000000000000000000000000000082
:103E40000000000000001C38381C300C60066003C5
:103E50006003600360036006300C381C1C380000EF
:103E60000000000000000000000000000000000052
:103E70000000000000001830301830187018600C76
:103E8000600CE00CC006C006800380038003800144
:103E90008001C001F0007000000000000000000080
:103EA000000000000000FC1FFC1F000C00060003C7
:103EB0008001C000600030001800FC1FFC1F0000E3
:103EC000000000000000000000000000000380016E
:103ED000C000C000C000C000C000C00060006000A2
:103EE000300060004000C000C000C000C000C00042
:103EF000C00080010003000000000000800180017C
:103F000080018001800180018001800180018001A9
:103F10008001800180018001800180018001800199
:103F20008001800180018001000000006000C0006D
:103F3000C001800180018001800180010003000335
:103F400000060003000180018001800180018001E2
:103F50008001C000600000000000000000000000C0
:103F600000000000000000000000F010F81F080F23
:103F70000000000000000000000000000000000041
:103F80000000000000000000000000000000000031
:103F90000000000000000000000000000000000021
:103FA0000000000000200020002000200020002051
:103FB0000020000000200000000000000050005021
:103FC00000500000000000000000000000000000A1
:103FD00000000000000900090012007F0012007FAD
:103FE00000120024002400000000001000380054DB
:103FF00000500050003800140054005400380010E5
:1040000000000000803000490049004AC03220050D
:1040100020092009C010000000000000000C001260
:10402000001200140018002500230023801D00004A
:1040300000000000004000400040000000000000C0
:104040000000000000000000000000000008001058
:104050000010002000200020002000200020001080
:104060000010000000400020002000100010001090
:104070000010001000100020002000000020007040
:1040800000200050000000000000000000000000C0
:10409000000000000000000000080008007F000889
:1040A0000008000000000000000000000000000008
:1040B00000000000000000000000000000200020C0
:1040C0000040000000000000000000000000007040
:1040D00000000000000000000000000000000000E0
:1040E00000000000000000000000000000200000B0
:1040F0000000000000100010001000200020002030
:1041000000200040004000000000000000100028D7
:104110000044004400440044004400280010000013
:1041200000000000001000300050001000100010CF
:1041300000100010001000000000000000300048D7
:10414000004400040008001000200040007C000033
:1041500000000000003000480004000800100008C3
:104160000044004800300000000000000008001873
:104170000018002800280048007C00080008000003
:1041800000000000003C00200040007000480004D7
:104190000044004800300000000000000018002427
:1041A0000040005000680044004400280010000057
:1041B00000000000007C0004000800100010001047
:1041C0000020002000200000000000000010002857
:1041D00000440028001000280044002800100000BF
:1041E000000000000010002800440044002C0014CF
:1041F0000004004800300000000000000000000043
:10420000002000000000000000000000002000006E
:10421000000000000000000000200000000000007E
:10422000000000000020002000400000000000040A
:1042300000080030004000300008000400000000CA
:104240000000000000000000007C00000000007C76
:10425000000000000000000000000000000000401E
:10426000002000180004001800200040000000009A
:104270000000000000380064004400040008001042
:10428000001000000010000000000000800F40102F
:10429000A02EA0512051205120512053C04D20204C
:1042A0004010000000080014001400140022003E1A
:1042B000002200410041000000000000003C0022FC
:1042C00000220022003C002200220022003C0000CC
:1042D00000000000000E001100210020002000203E
:1042E00000210011000E000000000000003C002230
:1042F000002100210021002100210022003C0000BB
:1043000000000000003E002000200020003E0020B1
:1043100000200020003E000000000000003E0020C1
:1043200000200020003C0020002000200020000091
:1043300000000000000E00110021002000270021D5
:1043400000210011000E00000000000000210021EB
:1043500000210021003F0021002100210021000058
:10436000000000000020002000200020002000208D
:1043700000200020002000000000000000080008CD
:10438000000800080008000800480048003000004D
:104390000000000000220024002800280038002827
:1043A0000024002400220000000000000020002063
:1043B000002000200020002000200020003E0000FF
:1043C000000000008020803180318031802A802AE6
:1043D000802A802A80240000000000000021003193
:1043E00000310029002900250023002300210000BE
:1043F00000000000000C001200210021002100211B
:1044000000210012000C000000000000003C00220F
:1044100000220022003C002000200020002000009C
:1044200000000000000C00120021002100210021EA
:1044300000210016000D000100000000003E0021D8
:1044400000210021003E00240022002180200000E5
:1044500000000000001C002200220020001C0002BE
:1044600000220022001C000000000000003E0008A6
:104470000008000800080008000800080008000004
:104480000000000000210021002100210021002166
:1044900000210012000C000000000000004100415B
:1044A0000022002200220014001400140008000062
:1044B000000000004044404A402A802A802A802A86
:1044C000802A802A00110000000000000041002224
:1044D0000014001400080014001400220041000021
:1044E0000000000000410022002200140008000823
:1044F000000800080008000000000000007E000224
:10450000000400080010001000200040007E0000A1
:1045100000000000003000200020002000200020CB
:10452000002000200020002000200000004000406B
:1045300000200020002000200020001000100000BB
:10454000000000000060002000200020002000206B
:104550000020002000200020002000000010002883
:1045600000280028004400000000000000000000B7
:10457000000000000000000000000000000000003B
:104580000000000000000000007E0040002000004D
:10459000000000000000000000000000000000001B
:1045A0000000000000000000003800440004003C4F
:1045B00000440044003C00000000000000400040B7
:1045C00000580064004400440044006400580000A7
:1045D00000000000000000000030004800400040E3
:1045E000004000480030000000000000000400040B
:1045F0000034004C004400440044004C00340000EF
:104600000000000000000000003800440044007C6E
:10461000004000440038000000000000006000403E
:1046200000E000400040004000400040004000002A
:1046300000000000000000000034004C0044004472
:104640000044004C003400040044000000400040DE
:10465000005800640044004400440044004400004A
:10466000000000000040000000400040004000400A
:10467000004000400040000000000000004000003A
:10468000004000400040004000400040004000402A
:104690000040000000400040004800500060005012
:1046A00000500048004800000000000000400040AA
:1046B000004000400040004000400040004000003A
:1046C00000000000000000000052006D0049004999
:1046D00000490049004900000000000000000000FF
:1046E00000580064004400440044004400440000BA
:1046F00000000000000000000038004400440044B6
:1047000000440044003800000000000000000000E9
:104710000058006400440044004400640058004015
:1047200000400000000000000034004C0044004441
:104730000044004C003400040004000000000000AD
:104740000050006000400040004000400040000079
:104750000000000000000000003000480040003071
:104760000008004800300000000000000040004049
:1047700000E00040004000400040004000600000B9
:104780000000000000000000004400440044004419
:104790000044004C00340000000000000000000055
:1047A00000440044002800280028002800100000D1
:1047B00000000000000000000049004900550055BD
:1047C000005500550022000000000000000000001D
:1047D00000440028002800100028002800440000A1
:1047E00000000000000000000044004400280028F1
:1047F0000028001000100010001000000000000051
:104800000078000800100020002000400078000020
:1048100000000000001000200020002000200040C8
:1048200000200020002000200020000000200020A8
:104830000020002000200020002000200020002078
:104840000020000000400020002000200020001078
:1048500000200020002000200020000000000000B8
:10486000000000740058000000000000000000007C
:104870000000000000000070005000500050005088
:104880000050005000700000000000000000000018
:104890000000000000000000000040004000400058
:1048A00040004000400000004000A000A000A00028
:1048B00000000000000000000000000024002400B0
:1048C000FE004800FC00480048003800540050003A
:1048D000380014001400540038004400A800A80058
:1048E000500014001A002A0024001000280028009C
:1048F000100074004C004C0030001000100010003C
:10490000000000000000000000000800100010007F
:10491000100010001000100008001000080008002F
:104920000800080008000800100000000000240033
:1049300018003C00180024000000000000001000D7
:1049400010007C00100010000000000000000000BB
:104950000000000008000800100000000000000037
:1049600000003C000000000000000000000000000B
:1049700000000000000018001800080008000800EF
:104980001000100020002000200018002400240047
:104990002400240024002400180008001800280027
:1049A0000800080008000800080038004400000063
:1049B00004000800100020007C00180024000400FF
:1049C0001800040004002400180004000C00140067
:1049D000240044007E00040004003C00200020006D
:1049E00038000400040024001800180024002000EF
:1049F000380024002400240018003C0004000800B3
:104A00000800080010001000100018002400240006
:104A1000180024002400240018001800240024009A
:104A200024001C00040024001800000000001000F6
:104A3000000000001000000000000000000008005E
:104A4000000000000800100000000000000004004A
:104A50001800200018000400000000000000000002
:104A60003C0000003C0000000000000000002000AE
:104A700018000400180020000000180024000400A2
:104A8000080010001000000010003C0042009900D7
:104A9000A500A5009D0042003800380044004400F5
:104AA00044007C004400440044007800440044007A
:104AB000780044004400440078001C0022004200BA
:104AC00040004000420022001C00700048004400EA
:104AD000440044004400480070007C004000400056
:104AE0007C004000400040007C003C002000200092
:104AF000380020002000200020001C00220042007E
:104B000040004E00420022001C00440044004400CB
:104B10007C004400440044004400100010001000D9
:104B20001000100010001000100004000400040029
:104B30000400040024002400180044004800500031
:104B40007000500048004800440020002000200071
:104B500020002000200020003C008200C600C6008B
:104B6000AA00AA00AA00AA00920042006200520015
:104B700052004A004A004600420018002400420049
:104B80004200420042002400180078004400440023
:104B9000440078004000400040001800240042001B
:104BA0004200420042002C001A00780044004400F9
:104BB00078005000480044004200380044004000A3
:104BC000380004004400440038007C00100010004D
:104BD00010001000100010001000420042004200BF
:104BE0004200420042002400180044004400280013
:104BF000280028002800280010009200AA00AA001F
:104C0000AA00AA00AA00AA0044004200240024002E
:104C10001800180024002400420044002800280046
:104C2000100010001000100010007C0004000800AC
:104C300010001000200040007C001C00100010003C
:104C400010001000100010001C00100010000800E0
:104C5000080008000800040004001C000400040010
:104C600004000400040004001C001000280044009C
:104C70000000000000000000000000000000000034
:104C800000000000000000000000200010001000E4
:104C900000000000000000000000000000001800FC
:104CA00004001C00240024001C0020002000280018
:104CB0003400240024003400280000000000180004
:104CC0002400200020002400180004000400140028
:104CD0002C00240024002C00140000000000180008
:104CE00024003C00200024001800000018001000E0
:104CF0001000180010001000100000001800240020
:104D000024001800040024001800200020002800BF
:104D100034002400240024002400100000001000AF
:104D20001000100010001000100008000000080023
:104D300008000800080028001000200020002400BF
:104D4000280030002800240024001000100010006B
:104D50001000100010001000100000000000A6005D
:104D6000DA009200920092009200000000002800F9
:104D70003400240024002400240000000000180057
:104D8000240024002400240018000000280034001F
:104D900024003800200020002000000014002C0017
:104DA00024001C00040004000400000000002C008B
:104DB000300020002000200020000000000018002B
:104DC0002400100008002400180000001000380023
:104DD0001000100010001000180000000000240057
:104DE0002400240024002C001400000000004400D3
:104DF0004400280028002800100000000000920055
:104E0000AA00AA00AA00AA00440000000000440072
:104E1000280010001000280044000000280028008E
:104E200028001000100010001000000000003C00DE
:104E300004000800100020003C00000008001000E2
:104E400010002000100010000800100010001000DA
:104E500010001000100010001000000010000800EA
:104E60000800040008000800100000000000000016
:104E7000600092000C0000000000FF00FF00FF0037
:104E8000FF00FF00FF00FF00FF000000AC4E000825
:104E900000000020600000009C2D00080C4F00085E
:104EA0006000002048040000AC2D00080000000055
:104EB00001020304010203040607080900000000C0
:104EC00000000000000000000000000000000000E2
:104ED000BA2D0008100018008A3F00080C000C00D2
:104EE0008A480008080008000000000000000000D8
:104EF0000000C80000503403000000000000000063
:0C4F00000102030406070809000000007D
:040000050800018965
:00000001FF
